{
  "_format": "hh-sol-artifact-1",
  "contractName": "NFTV",
  "sourceName": "contracts/NFTV.sol",
  "abi": [
    {
      "inputs": [],
      "stateMutability": "nonpayable",
      "type": "constructor"
    },
    {
      "anonymous": false,
      "inputs": [
        {
          "indexed": true,
          "internalType": "string",
          "name": "name",
          "type": "string"
        },
        {
          "indexed": false,
          "internalType": "string",
          "name": "pHash",
          "type": "string"
        }
      ],
      "name": "NFTRegistered",
      "type": "event"
    },
    {
      "inputs": [
        {
          "internalType": "string",
          "name": "name",
          "type": "string"
        }
      ],
      "name": "getNFTPhash",
      "outputs": [
        {
          "internalType": "string",
          "name": "",
          "type": "string"
        }
      ],
      "stateMutability": "view",
      "type": "function"
    },
    {
      "inputs": [
        {
          "internalType": "string",
          "name": "",
          "type": "string"
        }
      ],
      "name": "nftHashes",
      "outputs": [
        {
          "internalType": "string",
          "name": "pHash",
          "type": "string"
        },
        {
          "internalType": "bool",
          "name": "exists",
          "type": "bool"
        }
      ],
      "stateMutability": "view",
      "type": "function"
    },
    {
      "inputs": [],
      "name": "owner",
      "outputs": [
        {
          "internalType": "address",
          "name": "",
          "type": "address"
        }
      ],
      "stateMutability": "view",
      "type": "function"
    },
    {
      "inputs": [
        {
          "internalType": "string",
          "name": "name",
          "type": "string"
        },
        {
          "internalType": "string",
          "name": "pHash",
          "type": "string"
        }
      ],
      "name": "registerNFT",
      "outputs": [],
      "stateMutability": "nonpayable",
      "type": "function"
    }
  ],
  "bytecode": "0x6080604052348015600f57600080fd5b50336000806101000a81548173ffffffffffffffffffffffffffffffffffffffff021916908373ffffffffffffffffffffffffffffffffffffffff160217905550610ce18061005f6000396000f3fe608060405234801561001057600080fd5b506004361061004c5760003560e01c80638da5cb5b14610051578063bf1705691461006f578063caad77b41461009f578063d80147a3146100bb575b600080fd5b6100596100ec565b604051610066919061050a565b60405180910390f35b6100896004803603810190610084919061067f565b610110565b6040516100969190610747565b60405180910390f35b6100b960048036038101906100b49190610769565b61023d565b005b6100d560048036038101906100d0919061067f565b6103fa565b6040516100e39291906107fc565b60405180910390f35b60008054906101000a900473ffffffffffffffffffffffffffffffffffffffff1681565b606060006001836040516101249190610868565b908152602001604051809103902060405180604001604052908160008201805461014d906108ae565b80601f0160208091040260200160405190810160405280929190818152602001828054610179906108ae565b80156101c65780601f1061019b576101008083540402835291602001916101c6565b820191906000526020600020905b8154815290600101906020018083116101a957829003601f168201915b505050505081526020016001820160009054906101000a900460ff16151515158152505090508060200151610230576040517f08c379a00000000000000000000000000000000000000000000000000000000081526004016102279061092b565b60405180910390fd5b8060000151915050919050565b60008054906101000a900473ffffffffffffffffffffffffffffffffffffffff1673ffffffffffffffffffffffffffffffffffffffff163373ffffffffffffffffffffffffffffffffffffffff16146102cb576040517f08c379a00000000000000000000000000000000000000000000000000000000081526004016102c290610997565b60405180910390fd5b6001826040516102db9190610868565b908152602001604051809103902060010160009054906101000a900460ff161561033a576040517f08c379a000000000000000000000000000000000000000000000000000000000815260040161033190610a03565b60405180910390fd5b6040518060400160405280828152602001600115158152506001836040516103629190610868565b908152602001604051809103902060008201518160000190816103859190610bd9565b5060208201518160010160006101000a81548160ff021916908315150217905550905050816040516103b79190610868565b60405180910390207fccc7f24a1f25caea8baf1f1e1f04b82c0e4ba09f369392293a5a563ea166e4eb826040516103ee9190610747565b60405180910390a25050565b600181805160208101820180518482526020830160208501208183528095505050505050600091509050806000018054610433906108ae565b80601f016020809104026020016040519081016040528092919081815260200182805461045f906108ae565b80156104ac5780601f10610481576101008083540402835291602001916104ac565b820191906000526020600020905b81548152906001019060200180831161048f57829003601f168201915b5050505050908060010160009054906101000a900460ff16905082565b600073ffffffffffffffffffffffffffffffffffffffff82169050919050565b60006104f4826104c9565b9050919050565b610504816104e9565b82525050565b600060208201905061051f60008301846104fb565b92915050565b6000604051905090565b600080fd5b600080fd5b600080fd5b600080fd5b6000601f19601f8301169050919050565b7f4e487b7100000000000000000000000000000000000000000000000000000000600052604160045260246000fd5b61058c82610543565b810181811067ffffffffffffffff821117156105ab576105aa610554565b5b80604052505050565b60006105be610525565b90506105ca8282610583565b919050565b600067ffffffffffffffff8211156105ea576105e9610554565b5b6105f382610543565b9050602081019050919050565b82818337600083830152505050565b600061062261061d846105cf565b6105b4565b90508281526020810184848401111561063e5761063d61053e565b5b610649848285610600565b509392505050565b600082601f83011261066657610665610539565b5b813561067684826020860161060f565b91505092915050565b6000602082840312156106955761069461052f565b5b600082013567ffffffffffffffff8111156106b3576106b2610534565b5b6106bf84828501610651565b91505092915050565b600081519050919050565b600082825260208201905092915050565b60005b838110156107025780820151818401526020810190506106e7565b60008484015250505050565b6000610719826106c8565b61072381856106d3565b93506107338185602086016106e4565b61073c81610543565b840191505092915050565b60006020820190508181036000830152610761818461070e565b905092915050565b600080604083850312156107805761077f61052f565b5b600083013567ffffffffffffffff81111561079e5761079d610534565b5b6107aa85828601610651565b925050602083013567ffffffffffffffff8111156107cb576107ca610534565b5b6107d785828601610651565b9150509250929050565b60008115159050919050565b6107f6816107e1565b82525050565b60006040820190508181036000830152610816818561070e565b905061082560208301846107ed565b9392505050565b600081905092915050565b6000610842826106c8565b61084c818561082c565b935061085c8185602086016106e4565b80840191505092915050565b60006108748284610837565b915081905092915050565b7f4e487b7100000000000000000000000000000000000000000000000000000000600052602260045260246000fd5b600060028204905060018216806108c657607f821691505b6020821081036108d9576108d861087f565b5b50919050565b7f4e4654206e6f7420666f756e6400000000000000000000000000000000000000600082015250565b6000610915600d836106d3565b9150610920826108df565b602082019050919050565b6000602082019050818103600083015261094481610908565b9050919050565b7f4e6f7420636f6e7472616374206f776e65720000000000000000000000000000600082015250565b60006109816012836106d3565b915061098c8261094b565b602082019050919050565b600060208201905081810360008301526109b081610974565b9050919050565b7f4e465420616c7265616479207265676973746572656400000000000000000000600082015250565b60006109ed6016836106d3565b91506109f8826109b7565b602082019050919050565b60006020820190508181036000830152610a1c816109e0565b9050919050565b60008190508160005260206000209050919050565b60006020601f8301049050919050565b600082821b905092915050565b600060088302610a857fffffffffffffffffffffffffffffffffffffffffffffffffffffffffffffffff82610a48565b610a8f8683610a48565b95508019841693508086168417925050509392505050565b6000819050919050565b6000819050919050565b6000610ad6610ad1610acc84610aa7565b610ab1565b610aa7565b9050919050565b6000819050919050565b610af083610abb565b610b04610afc82610add565b848454610a55565b825550505050565b600090565b610b19610b0c565b610b24818484610ae7565b505050565b5b81811015610b4857610b3d600082610b11565b600181019050610b2a565b5050565b601f821115610b8d57610b5e81610a23565b610b6784610a38565b81016020851015610b76578190505b610b8a610b8285610a38565b830182610b29565b50505b505050565b600082821c905092915050565b6000610bb060001984600802610b92565b1980831691505092915050565b6000610bc98383610b9f565b9150826002028217905092915050565b610be2826106c8565b67ffffffffffffffff811115610bfb57610bfa610554565b5b610c0582546108ae565b610c10828285610b4c565b600060209050601f831160018114610c435760008415610c31578287015190505b610c3b8582610bbd565b865550610ca3565b601f198416610c5186610a23565b60005b82811015610c7957848901518255600182019150602085019450602081019050610c54565b86831015610c965784890151610c92601f891682610b9f565b8355505b6001600288020188555050505b50505050505056fea26469706673582212200c3ff7d33123eb44d25b52d216df858ded3a0742abcfadf8c1404f854ca4854264736f6c634300081c0033",
  "linkReferences": {},
  "deployedLinkReferences": {}
}