{
  "_format": "hh-sol-artifact-1",
  "contractName": "NFTAuth",
  "sourceName": "contracts/NFTAuth.sol",
  "abi": [
    {
      "inputs": [],
      "stateMutability": "nonpayable",
      "type": "constructor"
    },
    {
      "anonymous": false,
      "inputs": [
        {
          "indexed": true,
          "internalType": "string",
          "name": "name",
          "type": "string"
        },
        {
          "indexed": false,
          "internalType": "string",
          "name": "pHash",
          "type": "string"
        }
      ],
      "name": "NFTRegistered",
      "type": "event"
    },
    {
      "inputs": [
        {
          "internalType": "string",
          "name": "",
          "type": "string"
        }
      ],
      "name": "nftHashes",
      "outputs": [
        {
          "internalType": "string",
          "name": "pHash",
          "type": "string"
        },
        {
          "internalType": "bool",
          "name": "exists",
          "type": "bool"
        }
      ],
      "stateMutability": "view",
      "type": "function"
    },
    {
      "inputs": [],
      "name": "owner",
      "outputs": [
        {
          "internalType": "address",
          "name": "",
          "type": "address"
        }
      ],
      "stateMutability": "view",
      "type": "function"
    },
    {
      "inputs": [
        {
          "internalType": "string",
          "name": "name",
          "type": "string"
        },
        {
          "internalType": "string",
          "name": "pHash",
          "type": "string"
        }
      ],
      "name": "registerNFT",
      "outputs": [],
      "stateMutability": "nonpayable",
      "type": "function"
    },
    {
      "inputs": [
        {
          "internalType": "string",
          "name": "name",
          "type": "string"
        },
        {
          "internalType": "string",
          "name": "uploadedPhash",
          "type": "string"
        }
      ],
      "name": "verifyNFT",
      "outputs": [
        {
          "internalType": "bool",
          "name": "",
          "type": "bool"
        }
      ],
      "stateMutability": "view",
      "type": "function"
    }
  ],
  "bytecode": "0x6080604052348015600f57600080fd5b50336000806101000a81548173ffffffffffffffffffffffffffffffffffffffff021916908373ffffffffffffffffffffffffffffffffffffffff160217905550610d568061005f6000396000f3fe608060405234801561001057600080fd5b506004361061004c5760003560e01c806313883b01146100515780638da5cb5b14610081578063caad77b41461009f578063d80147a3146100bb575b600080fd5b61006b600480360381019061006691906105e3565b6100ec565b6040516100789190610676565b60405180910390f35b6100896101d9565b60405161009691906106d2565b60405180910390f35b6100b960048036038101906100b491906105e3565b6101fd565b005b6100d560048036038101906100d091906106ed565b6103ba565b6040516100e39291906107b5565b60405180910390f35b60006001836040516100fe9190610821565b908152602001604051809103902060010160009054906101000a900460ff1661015c576040517f08c379a000000000000000000000000000000000000000000000000000000000815260040161015390610884565b60405180910390fd5b60008260405160200161016f9190610821565b604051602081830303815290604052805190602001206001856040516101959190610821565b90815260200160405180910390206000016040516020016101b6919061099c565b604051602081830303815290604052805190602001201490508091505092915050565b60008054906101000a900473ffffffffffffffffffffffffffffffffffffffff1681565b60008054906101000a900473ffffffffffffffffffffffffffffffffffffffff1673ffffffffffffffffffffffffffffffffffffffff163373ffffffffffffffffffffffffffffffffffffffff161461028b576040517f08c379a0000000000000000000000000000000000000000000000000000000008152600401610282906109ff565b60405180910390fd5b60018260405161029b9190610821565b908152602001604051809103902060010160009054906101000a900460ff16156102fa576040517f08c379a00000000000000000000000000000000000000000000000000000000081526004016102f190610a6b565b60405180910390fd5b6040518060400160405280828152602001600115158152506001836040516103229190610821565b908152602001604051809103902060008201518160000190816103459190610c2c565b5060208201518160010160006101000a81548160ff021916908315150217905550905050816040516103779190610821565b60405180910390207fccc7f24a1f25caea8baf1f1e1f04b82c0e4ba09f369392293a5a563ea166e4eb826040516103ae9190610cfe565b60405180910390a25050565b6001818051602081018201805184825260208301602085012081835280955050505050506000915090508060000180546103f3906108d3565b80601f016020809104026020016040519081016040528092919081815260200182805461041f906108d3565b801561046c5780601f106104415761010080835404028352916020019161046c565b820191906000526020600020905b81548152906001019060200180831161044f57829003601f168201915b5050505050908060010160009054906101000a900460ff16905082565b6000604051905090565b600080fd5b600080fd5b600080fd5b600080fd5b6000601f19601f8301169050919050565b7f4e487b7100000000000000000000000000000000000000000000000000000000600052604160045260246000fd5b6104f0826104a7565b810181811067ffffffffffffffff8211171561050f5761050e6104b8565b5b80604052505050565b6000610522610489565b905061052e82826104e7565b919050565b600067ffffffffffffffff82111561054e5761054d6104b8565b5b610557826104a7565b9050602081019050919050565b82818337600083830152505050565b600061058661058184610533565b610518565b9050828152602081018484840111156105a2576105a16104a2565b5b6105ad848285610564565b509392505050565b600082601f8301126105ca576105c961049d565b5b81356105da848260208601610573565b91505092915050565b600080604083850312156105fa576105f9610493565b5b600083013567ffffffffffffffff81111561061857610617610498565b5b610624858286016105b5565b925050602083013567ffffffffffffffff81111561064557610644610498565b5b610651858286016105b5565b9150509250929050565b60008115159050919050565b6106708161065b565b82525050565b600060208201905061068b6000830184610667565b92915050565b600073ffffffffffffffffffffffffffffffffffffffff82169050919050565b60006106bc82610691565b9050919050565b6106cc816106b1565b82525050565b60006020820190506106e760008301846106c3565b92915050565b60006020828403121561070357610702610493565b5b600082013567ffffffffffffffff81111561072157610720610498565b5b61072d848285016105b5565b91505092915050565b600081519050919050565b600082825260208201905092915050565b60005b83811015610770578082015181840152602081019050610755565b60008484015250505050565b600061078782610736565b6107918185610741565b93506107a1818560208601610752565b6107aa816104a7565b840191505092915050565b600060408201905081810360008301526107cf818561077c565b90506107de6020830184610667565b9392505050565b600081905092915050565b60006107fb82610736565b61080581856107e5565b9350610815818560208601610752565b80840191505092915050565b600061082d82846107f0565b915081905092915050565b7f4e4654206e6f7420726567697374657265640000000000000000000000000000600082015250565b600061086e601283610741565b915061087982610838565b602082019050919050565b6000602082019050818103600083015261089d81610861565b9050919050565b7f4e487b7100000000000000000000000000000000000000000000000000000000600052602260045260246000fd5b600060028204905060018216806108eb57607f821691505b6020821081036108fe576108fd6108a4565b5b50919050565b60008190508160005260206000209050919050565b60008154610926816108d3565b61093081866107e5565b9450600182166000811461094b576001811461096057610993565b60ff1983168652811515820286019350610993565b61096985610904565b60005b8381101561098b5781548189015260018201915060208101905061096c565b838801955050505b50505092915050565b60006109a88284610919565b915081905092915050565b7f4e6f7420636f6e7472616374206f776e65720000000000000000000000000000600082015250565b60006109e9601283610741565b91506109f4826109b3565b602082019050919050565b60006020820190508181036000830152610a18816109dc565b9050919050565b7f4e465420616c7265616479207265676973746572656400000000000000000000600082015250565b6000610a55601683610741565b9150610a6082610a1f565b602082019050919050565b60006020820190508181036000830152610a8481610a48565b9050919050565b60006020601f8301049050919050565b600082821b905092915050565b600060088302610ad87fffffffffffffffffffffffffffffffffffffffffffffffffffffffffffffffff82610a9b565b610ae28683610a9b565b95508019841693508086168417925050509392505050565b6000819050919050565b6000819050919050565b6000610b29610b24610b1f84610afa565b610b04565b610afa565b9050919050565b6000819050919050565b610b4383610b0e565b610b57610b4f82610b30565b848454610aa8565b825550505050565b600090565b610b6c610b5f565b610b77818484610b3a565b505050565b5b81811015610b9b57610b90600082610b64565b600181019050610b7d565b5050565b601f821115610be057610bb181610904565b610bba84610a8b565b81016020851015610bc9578190505b610bdd610bd585610a8b565b830182610b7c565b50505b505050565b600082821c905092915050565b6000610c0360001984600802610be5565b1980831691505092915050565b6000610c1c8383610bf2565b9150826002028217905092915050565b610c3582610736565b67ffffffffffffffff811115610c4e57610c4d6104b8565b5b610c5882546108d3565b610c63828285610b9f565b600060209050601f831160018114610c965760008415610c84578287015190505b610c8e8582610c10565b865550610cf6565b601f198416610ca486610904565b60005b82811015610ccc57848901518255600182019150602085019450602081019050610ca7565b86831015610ce95784890151610ce5601f891682610bf2565b8355505b6001600288020188555050505b505050505050565b60006020820190508181036000830152610d18818461077c565b90509291505056fea2646970667358221220248f6f37f2c6ae7f575d87d65dcbbfc8983bbd05b354cc6ba6000b9be0e815fc64736f6c634300081c0033",
  "linkReferences": {},
  "deployedLinkReferences": {}
}